{"contracts/IceCreamVan.sol":{"IceCreamVan":{"abi":[{"inputs":[{"internalType":"address","name":"_factory","type":"address"},{"internalType":"address","name":"_bar","type":"address"},{"internalType":"address","name":"_pops","type":"address"},{"internalType":"address","name":"_weth","type":"address"}],"stateMutability":"nonpayable","type":"constructor"},{"anonymous":false,"inputs":[{"indexed":true,"internalType":"address","name":"token","type":"address"},{"indexed":true,"internalType":"address","name":"bridge","type":"address"}],"name":"LogBridgeSet","type":"event"},{"anonymous":false,"inputs":[{"indexed":true,"internalType":"address","name":"server","type":"address"},{"indexed":true,"internalType":"address","name":"token0","type":"address"},{"indexed":true,"internalType":"address","name":"token1","type":"address"},{"indexed":false,"internalType":"uint256","name":"amount0","type":"uint256"},{"indexed":false,"internalType":"uint256","name":"amount1","type":"uint256"},{"indexed":false,"internalType":"uint256","name":"amountPOPS","type":"uint256"}],"name":"LogConvert","type":"event"},{"anonymous":false,"inputs":[{"indexed":true,"internalType":"address","name":"previousOwner","type":"address"},{"indexed":true,"internalType":"address","name":"newOwner","type":"address"}],"name":"OwnershipTransferred","type":"event"},{"inputs":[],"name":"bar","outputs":[{"internalType":"address","name":"","type":"address"}],"stateMutability":"view","type":"function"},{"inputs":[{"internalType":"address","name":"token","type":"address"}],"name":"bridgeFor","outputs":[{"internalType":"address","name":"bridge","type":"address"}],"stateMutability":"view","type":"function"},{"inputs":[],"name":"claimOwnership","outputs":[],"stateMutability":"nonpayable","type":"function"},{"inputs":[{"internalType":"address","name":"token0","type":"address"},{"internalType":"address","name":"token1","type":"address"}],"name":"convert","outputs":[],"stateMutability":"nonpayable","type":"function"},{"inputs":[{"internalType":"address[]","name":"token0","type":"address[]"},{"internalType":"address[]","name":"token1","type":"address[]"}],"name":"convertMultiple","outputs":[],"stateMutability":"nonpayable","type":"function"},{"inputs":[],"name":"factory","outputs":[{"internalType":"contract ISicleFactory","name":"","type":"address"}],"stateMutability":"view","type":"function"},{"inputs":[],"name":"owner","outputs":[{"internalType":"address","name":"","type":"address"}],"stateMutability":"view","type":"function"},{"inputs":[],"name":"pendingOwner","outputs":[{"internalType":"address","name":"","type":"address"}],"stateMutability":"view","type":"function"},{"inputs":[{"internalType":"address","name":"token","type":"address"},{"internalType":"address","name":"bridge","type":"address"}],"name":"setBridge","outputs":[],"stateMutability":"nonpayable","type":"function"},{"inputs":[{"internalType":"address","name":"newOwner","type":"address"},{"internalType":"bool","name":"direct","type":"bool"},{"internalType":"bool","name":"renounce","type":"bool"}],"name":"transferOwnership","outputs":[],"stateMutability":"nonpayable","type":"function"}],"evm":{"bytecode":{"linkReferences":{},"object":"61010060405234801561001157600080fd5b5060405161188c38038061188c8339818101604052608081101561003457600080fd5b5080516020820151604080840151606090940151600080546001600160a01b0319163390811782559251949593949192917f8be0079c531659141344cd1fd0a4f28419497f9722a3daafe3b4186f6b6457e0908290a36001600160a01b038416158015906100aa57506001600160a01b03831615155b80156100be57506001600160a01b03821615155b80156100d257506001600160a01b03811615155b610123576040805162461bcd60e51b815260206004820152601860248201527f5369636c654d616b65723a207a65726f20616464726573730000000000000000604482015290519081900360640190fd5b6001600160601b0319606094851b811660805292841b831660a05290831b821660c05290911b1660e05260805160601c60a05160601c60c05160601c60e05160601c6116906101fc6000398061060c528061072a5280610d2d5280610d6a5280610f0f5280610f4c5280610f755280610fa25280610fdf52806110085250806105cf5280610c975280610cdc5280610dca5280610e0f5280610e735280610eb8528061113b5250806107e15280610cfe5280610e315280610eda528061115d5250806107ae5280610807528061118d52506116906000f3fe608060405234801561001057600080fd5b506004361061009e5760003560e01c8063a761a93911610066578063a761a939146101f7578063bd1b820c1461021d578063c45a01551461024b578063e30c397814610253578063febb0f7e1461025b5761009e565b8063078dfbe7146100a3578063303e6aa4146100db5780634e71e0c81461019d5780638da5cb5b146101a55780639d22ae8c146101c9575b600080fd5b6100d9600480360360608110156100b957600080fd5b506001600160a01b03813516906020810135151590604001351515610263565b005b6100d9600480360360408110156100f157600080fd5b81019060208101813564010000000081111561010c57600080fd5b82018360208201111561011e57600080fd5b8035906020019184602083028401116401000000008311171561014057600080fd5b91939092909160208101903564010000000081111561015e57600080fd5b82018360208201111561017057600080fd5b8035906020019184602083028401116401000000008311171561019257600080fd5b5090925090506103f2565b6100d961049d565b6101ad61055f565b604080516001600160a01b039092168252519081900360200190f35b6100d9600480360360408110156101df57600080fd5b506001600160a01b038135811691602001351661056e565b6101ad6004803603602081101561020d57600080fd5b50356001600160a01b0316610707565b6100d96004803603604081101561023357600080fd5b506001600160a01b038135811691602001351661074f565b6101ad6107ac565b6101ad6107d0565b6101ad6107df565b6000546001600160a01b031633146102c2576040805162461bcd60e51b815260206004820181905260248201527f4f776e61626c653a2063616c6c6572206973206e6f7420746865206f776e6572604482015290519081900360640190fd5b811561037e576001600160a01b0383161515806102dc5750805b610325576040805162461bcd60e51b81526020600482015260156024820152744f776e61626c653a207a65726f206164647265737360581b604482015290519081900360640190fd5b600080546040516001600160a01b03808716939216917f8be0079c531659141344cd1fd0a4f28419497f9722a3daafe3b4186f6b6457e091a3600080546001600160a01b0319166001600160a01b0385161790556103ed565b6001600160a01b0383166103d1576040805162461bcd60e51b81526020600482015260156024820152744f776e61626c653a207a65726f206164647265737360581b604482015290519081900360640190fd5b600180546001600160a01b0319166001600160a01b0385161790555b505050565b333214610441576040805162461bcd60e51b81526020600482015260186024820152775369636c654d616b65723a206d7573742075736520454f4160401b604482015290519081900360640190fd5b8260005b818110156104955761048d86868381811061045c57fe5b905060200201356001600160a01b031685858481811061047857fe5b905060200201356001600160a01b0316610803565b600101610445565b505050505050565b6001546001600160a01b03163381146104fd576040805162461bcd60e51b815260206004820181905260248201527f4f776e61626c653a2063616c6c657220213d2070656e64696e67206f776e6572604482015290519081900360640190fd5b600080546040516001600160a01b03808516939216917f8be0079c531659141344cd1fd0a4f28419497f9722a3daafe3b4186f6b6457e091a3600080546001600160a01b039092166001600160a01b0319928316179055600180549091169055565b6000546001600160a01b031681565b6000546001600160a01b031633146105cd576040805162461bcd60e51b815260206004820181905260248201527f4f776e61626c653a2063616c6c6572206973206e6f7420746865206f776e6572604482015290519081900360640190fd5b7f00000000000000000000000000000000000000000000000000000000000000006001600160a01b0316826001600160a01b03161415801561064157507f00000000000000000000000000000000000000000000000000000000000000006001600160a01b0316826001600160a01b031614155b801561065f5750806001600160a01b0316826001600160a01b031614155b6106b0576040805162461bcd60e51b815260206004820152601a60248201527f5369636c654d616b65723a20496e76616c696420627269646765000000000000604482015290519081900360640190fd5b6001600160a01b0382811660008181526002602052604080822080546001600160a01b0319169486169485179055517f2e103aa707acc565f9a1547341914802b2bfe977fd79c595209f248ae4b006139190a35050565b6001600160a01b03808216600090815260026020526040902054168061074a57507f00000000000000000000000000000000000000000000000000000000000000005b919050565b33321461079e576040805162461bcd60e51b81526020600482015260186024820152775369636c654d616b65723a206d7573742075736520454f4160401b604482015290519081900360640190fd5b6107a88282610803565b5050565b7f000000000000000000000000000000000000000000000000000000000000000081565b6001546001600160a01b031681565b7f000000000000000000000000000000000000000000000000000000000000000081565b60007f00000000000000000000000000000000000000000000000000000000000000006001600160a01b031663e6a4390584846040518363ffffffff1660e01b815260040180836001600160a01b03168152602001826001600160a01b031681526020019250505060206040518083038186803b15801561088357600080fd5b505afa158015610897573d6000803e3d6000fd5b505050506040513d60208110156108ad57600080fd5b505190506001600160a01b03811661090c576040805162461bcd60e51b815260206004820152601860248201527f5369636c654d616b65723a20496e76616c696420706169720000000000000000604482015290519081900360640190fd5b61099a81826001600160a01b03166370a08231306040518263ffffffff1660e01b815260040180826001600160a01b0316815260200191505060206040518083038186803b15801561095d57600080fd5b505afa158015610971573d6000803e3d6000fd5b505050506040513d602081101561098757600080fd5b50516001600160a01b0384169190610b01565b600080826001600160a01b03166389afcb44306040518263ffffffff1660e01b815260040180826001600160a01b031681526020019150506040805180830381600087803b1580156109eb57600080fd5b505af11580156109ff573d6000803e3d6000fd5b505050506040513d6040811015610a1557600080fd5b50805160209182015160408051630dfe168160e01b815290519295509093506001600160a01b03861692630dfe168192600480840193829003018186803b158015610a5f57600080fd5b505afa158015610a73573d6000803e3d6000fd5b505050506040513d6020811015610a8957600080fd5b50516001600160a01b03868116911614610a9f57905b6001600160a01b03808516908616337fd06b1d7ed79b664d17472c6f6997b929f1abe463ccccb4e5b6a0038f2f730c158585610add8b8b8484610c6b565b60408051938452602084019290925282820152519081900360600190a45050505050565b604080516001600160a01b038481166024830152604480830185905283518084039091018152606490920183526020820180516001600160e01b031663a9059cbb60e01b178152925182516000946060949389169392918291908083835b60208310610b7e5780518252601f199092019160209182019101610b5f565b6001836020036101000a0380198251168184511680821785525050505050509050019150506000604051808303816000865af19150503d8060008114610be0576040519150601f19603f3d011682016040523d82523d6000602084013e610be5565b606091505b5091509150818015610c13575080511580610c135750808060200190516020811015610c1057600080fd5b50515b610c64576040805162461bcd60e51b815260206004820152601a60248201527f5361666545524332303a205472616e73666572206661696c6564000000000000604482015290519081900360640190fd5b5050505050565b6000836001600160a01b0316856001600160a01b03161415610dc8576000610c9384846110dc565b90507f00000000000000000000000000000000000000000000000000000000000000006001600160a01b0316866001600160a01b03161415610d2b57610d236001600160a01b037f0000000000000000000000000000000000000000000000000000000000000000167f000000000000000000000000000000000000000000000000000000000000000083610b01565b809150610dc2565b7f00000000000000000000000000000000000000000000000000000000000000006001600160a01b0316866001600160a01b03161415610d9657610d8f7f000000000000000000000000000000000000000000000000000000000000000082611133565b9150610dc2565b6000610da187610707565b9050610daf87828430611188565b9150610dbe8182846000610c6b565b9250505b506110d4565b7f00000000000000000000000000000000000000000000000000000000000000006001600160a01b0316856001600160a01b03161415610e7157610e566001600160a01b037f0000000000000000000000000000000000000000000000000000000000000000167f000000000000000000000000000000000000000000000000000000000000000085610b01565b610e6a83610e648685611133565b906110dc565b90506110d4565b7f00000000000000000000000000000000000000000000000000000000000000006001600160a01b0316846001600160a01b03161415610f0d57610eff6001600160a01b037f0000000000000000000000000000000000000000000000000000000000000000167f000000000000000000000000000000000000000000000000000000000000000084610b01565b610e6a82610e648786611133565b7f00000000000000000000000000000000000000000000000000000000000000006001600160a01b0316856001600160a01b03161415610fa057610e6a7f0000000000000000000000000000000000000000000000000000000000000000610f9b85610e64887f00000000000000000000000000000000000000000000000000000000000000008830611188565b611133565b7f00000000000000000000000000000000000000000000000000000000000000006001600160a01b0316846001600160a01b0316141561102e57610e6a7f0000000000000000000000000000000000000000000000000000000000000000610f9b84610e64897f00000000000000000000000000000000000000000000000000000000000000008930611188565b600061103986610707565b9050600061104686610707565b9050856001600160a01b0316826001600160a01b031614156110805761107982876110738a868a30611188565b87610c6b565b92506110d1565b866001600160a01b0316816001600160a01b031614156110b1576110798782876110ac8a868a30611188565b610c6b565b6110ce82826110c28a868a30611188565b6110ac8a868a30611188565b92505b50505b949350505050565b8181018181101561112d576040805162461bcd60e51b8152602060048201526016602482015275536166654d6174683a20416464204f766572666c6f7760501b604482015290519081900360640190fd5b92915050565b6000611181837f0000000000000000000000000000000000000000000000000000000000000000847f0000000000000000000000000000000000000000000000000000000000000000611188565b9392505050565b6000807f00000000000000000000000000000000000000000000000000000000000000006001600160a01b031663e6a4390587876040518363ffffffff1660e01b815260040180836001600160a01b03168152602001826001600160a01b031681526020019250505060206040518083038186803b15801561120957600080fd5b505afa15801561121d573d6000803e3d6000fd5b505050506040513d602081101561123357600080fd5b505190506001600160a01b038116611292576040805162461bcd60e51b815260206004820152601a60248201527f5369636c654d616b65723a2043616e6e6f7420636f6e76657274000000000000604482015290519081900360640190fd5b600080826001600160a01b0316630902f1ac6040518163ffffffff1660e01b815260040160606040518083038186803b1580156112ce57600080fd5b505afa1580156112e2573d6000803e3d6000fd5b505050506040513d60608110156112f857600080fd5b5080516020909101516dffffffffffffffffffffffffffff91821693501690506000611326876103e56115f5565b9050836001600160a01b0316630dfe16816040518163ffffffff1660e01b815260040160206040518083038186803b15801561136157600080fd5b505afa158015611375573d6000803e3d6000fd5b505050506040513d602081101561138b57600080fd5b50516001600160a01b038a8116911614156114c6576113b081610e64856103e86115f5565b6113ba82846115f5565b816113c157fe5b0494506113d86001600160a01b038a168589610b01565b604080516000808252602082019283905263022c0d9f60e01b835260248201818152604483018990526001600160a01b038a81166064850152608060848501908152845160a48601819052918a169563022c0d9f958c948e9491939092909160c4850191908083838b5b8381101561145a578181015183820152602001611442565b50505050905090810190601f1680156114875780820380516001836020036101000a031916815260200191505b5095505050505050600060405180830381600087803b1580156114a957600080fd5b505af11580156114bd573d6000803e3d6000fd5b505050506115e9565b6114d681610e64846103e86115f5565b6114e082856115f5565b816114e757fe5b0494506114fe6001600160a01b038a168589610b01565b604080516000808252602082019283905263022c0d9f60e01b835260248201888152604483018290526001600160a01b038a81166064850152608060848501908152845160a48601819052918a169563022c0d9f958c95948e9491939092909160c4850191908083838a5b83811015611581578181015183820152602001611569565b50505050905090810190601f1680156115ae5780820380516001836020036101000a031916815260200191505b5095505050505050600060405180830381600087803b1580156115d057600080fd5b505af11580156115e4573d6000803e3d6000fd5b505050505b50505050949350505050565b60008115806116105750508082028282828161160d57fe5b04145b61112d576040805162461bcd60e51b8152602060048201526016602482015275536166654d6174683a204d756c204f766572666c6f7760501b604482015290519081900360640190fdfea2646970667358221220141a9d6d7bdc9cff3f22b810da046db2ecb7c57bab007148948fc778e774ba1e64736f6c634300060c0033","opcodes":"PUSH2 0x100 PUSH1 0x40 MSTORE CALLVALUE DUP1 ISZERO PUSH2 0x11 JUMPI PUSH1 0x0 DUP1 REVERT JUMPDEST POP PUSH1 0x40 MLOAD PUSH2 0x188C CODESIZE SUB DUP1 PUSH2 0x188C DUP4 CODECOPY DUP2 DUP2 ADD PUSH1 0x40 MSTORE PUSH1 0x80 DUP2 LT ISZERO PUSH2 0x34 JUMPI PUSH1 0x0 DUP1 REVERT JUMPDEST POP DUP1 MLOAD PUSH1 0x20 DUP3 ADD MLOAD PUSH1 0x40 DUP1 DUP5 ADD MLOAD PUSH1 0x60 SWAP1 SWAP5 ADD MLOAD PUSH1 0x0 DUP1 SLOAD PUSH1 0x1 PUSH1 0x1 PUSH1 0xA0 SHL SUB NOT AND CALLER SWAP1 DUP2 OR DUP3 SSTORE SWAP3 MLOAD SWAP5 SWAP6 SWAP4 SWAP5 SWAP2 SWAP3 SWAP2 PUSH32 0x8BE0079C531659141344CD1FD0A4F28419497F9722A3DAAFE3B4186F6B6457E0 SWAP1 DUP3 SWAP1 LOG3 PUSH1 0x1 PUSH1 0x1 PUSH1 0xA0 SHL SUB DUP5 AND ISZERO DUP1 ISZERO SWAP1 PUSH2 0xAA JUMPI POP PUSH1 0x1 PUSH1 0x1 PUSH1 0xA0 SHL SUB DUP4 AND ISZERO ISZERO JUMPDEST DUP1 ISZERO PUSH2 0xBE JUMPI POP PUSH1 0x1 PUSH1 0x1 PUSH1 0xA0 SHL SUB DUP3 AND ISZERO ISZERO JUMPDEST DUP1 ISZERO PUSH2 0xD2 JUMPI POP PUSH1 0x1 PUSH1 0x1 PUSH1 0xA0 SHL SUB DUP2 AND ISZERO ISZERO JUMPDEST PUSH2 0x123 JUMPI PUSH1 0x40 DUP1 MLOAD PUSH3 0x461BCD PUSH1 0xE5 SHL DUP2 MSTORE PUSH1 0x20 PUSH1 0x4 DUP3 ADD MSTORE PUSH1 0x18 PUSH1 0x24 DUP3 ADD MSTORE PUSH32 0x5369636C654D616B65723A207A65726F20616464726573730000000000000000 PUSH1 0x44 DUP3 ADD MSTORE SWAP1 MLOAD SWAP1 DUP2 SWAP1 SUB PUSH1 0x64 ADD SWAP1 REVERT JUMPDEST PUSH1 0x1 PUSH1 0x1 PUSH1 0x60 SHL SUB NOT PUSH1 0x60 SWAP5 DUP6 SHL DUP2 AND PUSH1 0x80 MSTORE SWAP3 DUP5 SHL DUP4 AND PUSH1 0xA0 MSTORE SWAP1 DUP4 SHL DUP3 AND PUSH1 0xC0 MSTORE SWAP1 SWAP2 SHL AND PUSH1 0xE0 MSTORE PUSH1 0x80 MLOAD PUSH1 0x60 SHR PUSH1 0xA0 MLOAD PUSH1 0x60 SHR PUSH1 0xC0 MLOAD PUSH1 0x60 SHR PUSH1 0xE0 MLOAD PUSH1 0x60 SHR PUSH2 0x1690 PUSH2 0x1FC PUSH1 0x0 CODECOPY DUP1 PUSH2 0x60C MSTORE DUP1 PUSH2 0x72A MSTORE DUP1 PUSH2 0xD2D MSTORE DUP1 PUSH2 0xD6A MSTORE DUP1 PUSH2 0xF0F MSTORE DUP1 PUSH2 0xF4C MSTORE DUP1 PUSH2 0xF75 MSTORE DUP1 PUSH2 0xFA2 MSTORE DUP1 PUSH2 0xFDF MSTORE DUP1 PUSH2 0x1008 MSTORE POP DUP1 PUSH2 0x5CF MSTORE DUP1 PUSH2 0xC97 MSTORE DUP1 PUSH2 0xCDC MSTORE DUP1 PUSH2 0xDCA MSTORE DUP1 PUSH2 0xE0F MSTORE DUP1 PUSH2 0xE73 MSTORE DUP1 PUSH2 0xEB8 MSTORE DUP1 PUSH2 0x113B MSTORE POP DUP1 PUSH2 0x7E1 MSTORE DUP1 PUSH2 0xCFE MSTORE DUP1 PUSH2 0xE31 MSTORE DUP1 PUSH2 0xEDA MSTORE DUP1 PUSH2 0x115D MSTORE POP DUP1 PUSH2 0x7AE MSTORE DUP1 PUSH2 0x807 MSTORE DUP1 PUSH2 0x118D MSTORE POP PUSH2 0x1690 PUSH1 0x0 RETURN INVALID PUSH1 0x80 PUSH1 0x40 MSTORE CALLVALUE DUP1 ISZERO PUSH2 0x10 JUMPI PUSH1 0x0 DUP1 REVERT JUMPDEST POP PUSH1 0x4 CALLDATASIZE LT PUSH2 0x9E JUMPI PUSH1 0x0 CALLDATALOAD PUSH1 0xE0 SHR DUP1 PUSH4 0xA761A939 GT PUSH2 0x66 JUMPI DUP1 PUSH4 0xA761A939 EQ PUSH2 0x1F7 JUMPI DUP1 PUSH4 0xBD1B820C EQ PUSH2 0x21D JUMPI DUP1 PUSH4 0xC45A0155 EQ PUSH2 0x24B JUMPI DUP1 PUSH4 0xE30C3978 EQ PUSH2 0x253 JUMPI DUP1 PUSH4 0xFEBB0F7E EQ PUSH2 0x25B JUMPI PUSH2 0x9E JUMP JUMPDEST DUP1 PUSH4 0x78DFBE7 EQ PUSH2 0xA3 JUMPI DUP1 PUSH4 0x303E6AA4 EQ PUSH2 0xDB JUMPI DUP1 PUSH4 0x4E71E0C8 EQ PUSH2 0x19D JUMPI DUP1 PUSH4 0x8DA5CB5B EQ PUSH2 0x1A5 JUMPI DUP1 PUSH4 0x9D22AE8C EQ PUSH2 0x1C9 JUMPI JUMPDEST PUSH1 0x0 DUP1 REVERT JUMPDEST PUSH2 0xD9 PUSH1 0x4 DUP1 CALLDATASIZE SUB PUSH1 0x60 DUP2 LT ISZERO PUSH2 0xB9 JUMPI PUSH1 0x0 DUP1 REVERT JUMPDEST POP PUSH1 0x1 PUSH1 0x1 PUSH1 0xA0 SHL SUB DUP2 CALLDATALOAD AND SWAP1 PUSH1 0x20 DUP2 ADD CALLDATALOAD ISZERO ISZERO SWAP1 PUSH1 0x40 ADD CALLDATALOAD ISZERO ISZERO PUSH2 0x263 JUMP JUMPDEST STOP JUMPDEST PUSH2 0xD9 PUSH1 0x4 DUP1 CALLDATASIZE SUB PUSH1 0x40 DUP2 LT ISZERO PUSH2 0xF1 JUMPI PUSH1 0x0 DUP1 REVERT JUMPDEST DUP2 ADD SWAP1 PUSH1 0x20 DUP2 ADD DUP2 CALLDATALOAD PUSH5 0x100000000 DUP2 GT ISZERO PUSH2 0x10C JUMPI PUSH1 0x0 DUP1 REVERT JUMPDEST DUP3 ADD DUP4 PUSH1 0x20 DUP3 ADD GT ISZERO PUSH2 0x11E JUMPI PUSH1 0x0 DUP1 REVERT JUMPDEST DUP1 CALLDATALOAD SWAP1 PUSH1 0x20 ADD SWAP2 DUP5 PUSH1 0x20 DUP4 MUL DUP5 ADD GT PUSH5 0x100000000 DUP4 GT OR ISZERO PUSH2 0x140 JUMPI PUSH1 0x0 DUP1 REVERT JUMPDEST SWAP2 SWAP4 SWAP1 SWAP3 SWAP1 SWAP2 PUSH1 0x20 DUP2 ADD SWAP1 CALLDATALOAD PUSH5 0x100000000 DUP2 GT ISZERO PUSH2 0x15E JUMPI PUSH1 0x0 DUP1 REVERT JUMPDEST DUP3 ADD DUP4 PUSH1 0x20 DUP3 ADD GT ISZERO PUSH2 0x170 JUMPI PUSH1 0x0 DUP1 REVERT JUMPDEST DUP1 CALLDATALOAD SWAP1 PUSH1 0x20 ADD SWAP2 DUP5 PUSH1 0x20 DUP4 MUL DUP5 ADD GT PUSH5 0x100000000 DUP4 GT OR ISZERO PUSH2 0x192 JUMPI PUSH1 0x0 DUP1 REVERT JUMPDEST POP SWAP1 SWAP3 POP SWAP1 POP PUSH2 0x3F2 JUMP JUMPDEST PUSH2 0xD9 PUSH2 0x49D JUMP JUMPDEST PUSH2 0x1AD PUSH2 0x55F JUMP JUMPDEST PUSH1 0x40 DUP1 MLOAD PUSH1 0x1 PUSH1 0x1 PUSH1 0xA0 SHL SUB SWAP1 SWAP3 AND DUP3 MSTORE MLOAD SWAP1 DUP2 SWAP1 SUB PUSH1 0x20 ADD SWAP1 RETURN JUMPDEST PUSH2 0xD9 PUSH1 0x4 DUP1 CALLDATASIZE SUB PUSH1 0x40 DUP2 LT ISZERO PUSH2 0x1DF JUMPI PUSH1 0x0 DUP1 REVERT JUMPDEST POP PUSH1 0x1 PUSH1 0x1 PUSH1 0xA0 SHL SUB DUP2 CALLDATALOAD DUP2 AND SWAP2 PUSH1 0x20 ADD CALLDATALOAD AND PUSH2 0x56E JUMP JUMPDEST PUSH2 0x1AD PUSH1 0x4 DUP1 CALLDATASIZE SUB PUSH1 0x20 DUP2 LT ISZERO PUSH2 0x20D JUMPI PUSH1 0x0 DUP1 REVERT JUMPDEST POP CALLDATALOAD PUSH1 0x1 PUSH1 0x1 PUSH1 0xA0 SHL SUB AND PUSH2 0x707 JUMP JUMPDEST PUSH2 0xD9 PUSH1 0x4 DUP1 CALLDATASIZE SUB PUSH1 0x40 DUP2 LT ISZERO PUSH2 0x233 JUMPI PUSH1 0x0 DUP1 REVERT JUMPDEST POP PUSH1 0x1 PUSH1 0x1 PUSH1 0xA0 SHL SUB DUP2 CALLDATALOAD DUP2 AND SWAP2 PUSH1 0x20 ADD CALLDATALOAD AND PUSH2 0x74F JUMP JUMPDEST PUSH2 0x1AD PUSH2 0x7AC JUMP JUMPDEST PUSH2 0x1AD PUSH2 0x7D0 JUMP JUMPDEST PUSH2 0x1AD PUSH2 0x7DF JUMP JUMPDEST PUSH1 0x0 SLOAD PUSH1 0x1 PUSH1 0x1 PUSH1 0xA0 SHL SUB AND CALLER EQ PUSH2 0x2C2 JUMPI PUSH1 0x40 DUP1 MLOAD PUSH3 0x461BCD PUSH1 0xE5 SHL DUP2 MSTORE PUSH1 0x20 PUSH1 0x4 DUP3 ADD DUP2 SWAP1 MSTORE PUSH1 0x24 DUP3 ADD MSTORE PUSH32 0x4F776E61626C653A2063616C6C6572206973206E6F7420746865206F776E6572 PUSH1 0x44 DUP3 ADD MSTORE SWAP1 MLOAD SWAP1 DUP2 SWAP1 SUB PUSH1 0x64 ADD SWAP1 REVERT JUMPDEST DUP2 ISZERO PUSH2 0x37E JUMPI PUSH1 0x1 PUSH1 0x1 PUSH1 0xA0 SHL SUB DUP4 AND ISZERO ISZERO DUP1 PUSH2 0x2DC JUMPI POP DUP1 JUMPDEST PUSH2 0x325 JUMPI PUSH1 0x40 DUP1 MLOAD PUSH3 0x461BCD PUSH1 0xE5 SHL DUP2 MSTORE PUSH1 0x20 PUSH1 0x4 DUP3 ADD MSTORE PUSH1 0x15 PUSH1 0x24 DUP3 ADD MSTORE PUSH21 0x4F776E61626C653A207A65726F2061646472657373 PUSH1 0x58 SHL PUSH1 0x44 DUP3 ADD MSTORE SWAP1 MLOAD SWAP1 DUP2 SWAP1 SUB PUSH1 0x64 ADD SWAP1 REVERT JUMPDEST PUSH1 0x0 DUP1 SLOAD PUSH1 0x40 MLOAD PUSH1 0x1 PUSH1 0x1 PUSH1 0xA0 SHL SUB DUP1 DUP8 AND SWAP4 SWAP3 AND SWAP2 PUSH32 0x8BE0079C531659141344CD1FD0A4F28419497F9722A3DAAFE3B4186F6B6457E0 SWAP2 LOG3 PUSH1 0x0 DUP1 SLOAD PUSH1 0x1 PUSH1 0x1 PUSH1 0xA0 SHL SUB NOT AND PUSH1 0x1 PUSH1 0x1 PUSH1 0xA0 SHL SUB DUP6 AND OR SWAP1 SSTORE PUSH2 0x3ED JUMP JUMPDEST PUSH1 0x1 PUSH1 0x1 PUSH1 0xA0 SHL SUB DUP4 AND PUSH2 0x3D1 JUMPI PUSH1 0x40 DUP1 MLOAD PUSH3 0x461BCD PUSH1 0xE5 SHL DUP2 MSTORE PUSH1 0x20 PUSH1 0x4 DUP3 ADD MSTORE PUSH1 0x15 PUSH1 0x24 DUP3 ADD MSTORE PUSH21 0x4F776E61626C653A207A65726F2061646472657373 PUSH1 0x58 SHL PUSH1 0x44 DUP3 ADD MSTORE SWAP1 MLOAD SWAP1 DUP2 SWAP1 SUB PUSH1 0x64 ADD SWAP1 REVERT JUMPDEST PUSH1 0x1 DUP1 SLOAD PUSH1 0x1 PUSH1 0x1 PUSH1 0xA0 SHL SUB NOT AND PUSH1 0x1 PUSH1 0x1 PUSH1 0xA0 SHL SUB DUP6 AND OR SWAP1 SSTORE JUMPDEST POP POP POP JUMP JUMPDEST CALLER ORIGIN EQ PUSH2 0x441 JUMPI PUSH1 0x40 DUP1 MLOAD PUSH3 0x461BCD PUSH1 0xE5 SHL DUP2 MSTORE PUSH1 0x20 PUSH1 0x4 DUP3 ADD MSTORE PUSH1 0x18 PUSH1 0x24 DUP3 ADD MSTORE PUSH24 0x5369636C654D616B65723A206D7573742075736520454F41 PUSH1 0x40 SHL PUSH1 0x44 DUP3 ADD MSTORE SWAP1 MLOAD SWAP1 DUP2 SWAP1 SUB PUSH1 0x64 ADD SWAP1 REVERT JUMPDEST DUP3 PUSH1 0x0 JUMPDEST DUP2 DUP2 LT ISZERO PUSH2 0x495 JUMPI PUSH2 0x48D DUP7 DUP7 DUP4 DUP2 DUP2 LT PUSH2 0x45C JUMPI INVALID JUMPDEST SWAP1 POP PUSH1 0x20 MUL ADD CALLDATALOAD PUSH1 0x1 PUSH1 0x1 PUSH1 0xA0 SHL SUB AND DUP6 DUP6 DUP5 DUP2 DUP2 LT PUSH2 0x478 JUMPI INVALID JUMPDEST SWAP1 POP PUSH1 0x20 MUL ADD CALLDATALOAD PUSH1 0x1 PUSH1 0x1 PUSH1 0xA0 SHL SUB AND PUSH2 0x803 JUMP JUMPDEST PUSH1 0x1 ADD PUSH2 0x445 JUMP JUMPDEST POP POP POP POP POP POP JUMP JUMPDEST PUSH1 0x1 SLOAD PUSH1 0x1 PUSH1 0x1 PUSH1 0xA0 SHL SUB AND CALLER DUP2 EQ PUSH2 0x4FD JUMPI PUSH1 0x40 DUP1 MLOAD PUSH3 0x461BCD PUSH1 0xE5 SHL DUP2 MSTORE PUSH1 0x20 PUSH1 0x4 DUP3 ADD DUP2 SWAP1 MSTORE PUSH1 0x24 DUP3 ADD MSTORE PUSH32 0x4F776E61626C653A2063616C6C657220213D2070656E64696E67206F776E6572 PUSH1 0x44 DUP3 ADD MSTORE SWAP1 MLOAD SWAP1 DUP2 SWAP1 SUB PUSH1 0x64 ADD SWAP1 REVERT JUMPDEST PUSH1 0x0 DUP1 SLOAD PUSH1 0x40 MLOAD PUSH1 0x1 PUSH1 0x1 PUSH1 0xA0 SHL SUB DUP1 DUP6 AND SWAP4 SWAP3 AND SWAP2 PUSH32 0x8BE0079C531659141344CD1FD0A4F28419497F9722A3DAAFE3B4186F6B6457E0 SWAP2 LOG3 PUSH1 0x0 DUP1 SLOAD PUSH1 0x1 PUSH1 0x1 PUSH1 0xA0 SHL SUB SWAP1 SWAP3 AND PUSH1 0x1 PUSH1 0x1 PUSH1 0xA0 SHL SUB NOT SWAP3 DUP4 AND OR SWAP1 SSTORE PUSH1 0x1 DUP1 SLOAD SWAP1 SWAP2 AND SWAP1 SSTORE JUMP JUMPDEST PUSH1 0x0 SLOAD PUSH1 0x1 PUSH1 0x1 PUSH1 0xA0 SHL SUB AND DUP2 JUMP JUMPDEST PUSH1 0x0 SLOAD PUSH1 0x1 PUSH1 0x1 PUSH1 0xA0 SHL SUB AND CALLER EQ PUSH2 0x5CD JUMPI PUSH1 0x40 DUP1 MLOAD PUSH3 0x461BCD PUSH1 0xE5 SHL DUP2 MSTORE PUSH1 0x20 PUSH1 0x4 DUP3 ADD DUP2 SWAP1 MSTORE PUSH1 0x24 DUP3 ADD MSTORE PUSH32 0x4F776E61626C653A2063616C6C6572206973206E6F7420746865206F776E6572 PUSH1 0x44 DUP3 ADD MSTORE SWAP1 MLOAD SWAP1 DUP2 SWAP1 SUB PUSH1 0x64 ADD SWAP1 REVERT JUMPDEST PUSH32 0x0 PUSH1 0x1 PUSH1 0x1 PUSH1 0xA0 SHL SUB AND DUP3 PUSH1 0x1 PUSH1 0x1 PUSH1 0xA0 SHL SUB AND EQ ISZERO DUP1 ISZERO PUSH2 0x641 JUMPI POP PUSH32 0x0 PUSH1 0x1 PUSH1 0x1 PUSH1 0xA0 SHL SUB AND DUP3 PUSH1 0x1 PUSH1 0x1 PUSH1 0xA0 SHL SUB AND EQ ISZERO JUMPDEST DUP1 ISZERO PUSH2 0x65F JUMPI POP DUP1 PUSH1 0x1 PUSH1 0x1 PUSH1 0xA0 SHL SUB AND DUP3 PUSH1 0x1 PUSH1 0x1 PUSH1 0xA0 SHL SUB AND EQ ISZERO JUMPDEST PUSH2 0x6B0 JUMPI PUSH1 0x40 DUP1 MLOAD PUSH3 0x461BCD PUSH1 0xE5 SHL DUP2 MSTORE PUSH1 0x20 PUSH1 0x4 DUP3 ADD MSTORE PUSH1 0x1A PUSH1 0x24 DUP3 ADD MSTORE PUSH32 0x5369636C654D616B65723A20496E76616C696420627269646765000000000000 PUSH1 0x44 DUP3 ADD MSTORE SWAP1 MLOAD SWAP1 DUP2 SWAP1 SUB PUSH1 0x64 ADD SWAP1 REVERT JUMPDEST PUSH1 0x1 PUSH1 0x1 PUSH1 0xA0 SHL SUB DUP3 DUP2 AND PUSH1 0x0 DUP2 DUP2 MSTORE PUSH1 0x2 PUSH1 0x20 MSTORE PUSH1 0x40 DUP1 DUP3 KECCAK256 DUP1 SLOAD PUSH1 0x1 PUSH1 0x1 PUSH1 0xA0 SHL SUB NOT AND SWAP5 DUP7 AND SWAP5 DUP6 OR SWAP1 SSTORE MLOAD PUSH32 0x2E103AA707ACC565F9A1547341914802B2BFE977FD79C595209F248AE4B00613 SWAP2 SWAP1 LOG3 POP POP JUMP JUMPDEST PUSH1 0x1 PUSH1 0x1 PUSH1 0xA0 SHL SUB DUP1 DUP3 AND PUSH1 0x0 SWAP1 DUP2 MSTORE PUSH1 0x2 PUSH1 0x20 MSTORE PUSH1 0x40 SWAP1 KECCAK256 SLOAD AND DUP1 PUSH2 0x74A JUMPI POP PUSH32 0x0 JUMPDEST SWAP2 SWAP1 POP JUMP JUMPDEST CALLER ORIGIN EQ PUSH2 0x79E JUMPI PUSH1 0x40 DUP1 MLOAD PUSH3 0x461BCD PUSH1 0xE5 SHL DUP2 MSTORE PUSH1 0x20 PUSH1 0x4 DUP3 ADD MSTORE PUSH1 0x18 PUSH1 0x24 DUP3 ADD MSTORE PUSH24 0x5369636C654D616B65723A206D7573742075736520454F41 PUSH1 0x40 SHL PUSH1 0x44 DUP3 ADD MSTORE SWAP1 MLOAD SWAP1 DUP2 SWAP1 SUB PUSH1 0x64 ADD SWAP1 REVERT JUMPDEST PUSH2 0x7A8 DUP3 DUP3 PUSH2 0x803 JUMP JUMPDEST POP POP JUMP JUMPDEST PUSH32 0x0 DUP2 JUMP JUMPDEST PUSH1 0x1 SLOAD PUSH1 0x1 PUSH1 0x1 PUSH1 0xA0 SHL SUB AND DUP2 JUMP JUMPDEST PUSH32 0x0 DUP2 JUMP JUMPDEST PUSH1 0x0 PUSH32 0x0 PUSH1 0x1 PUSH1 0x1 PUSH1 0xA0 SHL SUB AND PUSH4 0xE6A43905 DUP5 DUP5 PUSH1 0x40 MLOAD DUP4 PUSH4 0xFFFFFFFF AND PUSH1 0xE0 SHL DUP2 MSTORE PUSH1 0x4 ADD DUP1 DUP4 PUSH1 0x1 PUSH1 0x1 PUSH1 0xA0 SHL SUB AND DUP2 MSTORE PUSH1 0x20 ADD DUP3 PUSH1 0x1 PUSH1 0x1 PUSH1 0xA0 SHL SUB AND DUP2 MSTORE PUSH1 0x20 ADD SWAP3 POP POP POP PUSH1 0x20 PUSH1 0x40 MLOAD DUP1 DUP4 SUB DUP2 DUP7 DUP1 EXTCODESIZE ISZERO DUP1 ISZERO PUSH2 0x883 JUMPI PUSH1 0x0 DUP1 REVERT JUMPDEST POP GAS STATICCALL ISZERO DUP1 ISZERO PUSH2 0x897 JUMPI RETURNDATASIZE PUSH1 0x0 DUP1 RETURNDATACOPY RETURNDATASIZE PUSH1 0x0 REVERT JUMPDEST POP POP POP POP PUSH1 0x40 MLOAD RETURNDATASIZE PUSH1 0x20 DUP2 LT ISZERO PUSH2 0x8AD JUMPI PUSH1 0x0 DUP1 REVERT JUMPDEST POP MLOAD SWAP1 POP PUSH1 0x1 PUSH1 0x1 PUSH1 0xA0 SHL SUB DUP2 AND PUSH2 0x90C JUMPI PUSH1 0x40 DUP1 MLOAD PUSH3 0x461BCD PUSH1 0xE5 SHL DUP2 MSTORE PUSH1 0x20 PUSH1 0x4 DUP3 ADD MSTORE PUSH1 0x18 PUSH1 0x24 DUP3 ADD MSTORE PUSH32 0x5369636C654D616B65723A20496E76616C696420706169720000000000000000 PUSH1 0x44 DUP3 ADD MSTORE SWAP1 MLOAD SWAP1 DUP2 SWAP1 SUB PUSH1 0x64 ADD SWAP1 REVERT JUMPDEST PUSH2 0x99A DUP2 DUP3 PUSH1 0x1 PUSH1 0x1 PUSH1 0xA0 SHL SUB AND PUSH4 0x70A08231 ADDRESS PUSH1 0x40 MLOAD DUP3 PUSH4 0xFFFFFFFF AND PUSH1 0xE0 SHL DUP2 MSTORE PUSH1 0x4 ADD DUP1 DUP3 PUSH1 0x1 PUSH1 0x1 PUSH1 0xA0 SHL SUB AND DUP2 MSTORE PUSH1 0x20 ADD SWAP2 POP POP PUSH1 0x20 PUSH1 0x40 MLOAD DUP1 DUP4 SUB DUP2 DUP7 DUP1 EXTCODESIZE ISZERO DUP1 ISZERO PUSH2 0x95D JUMPI PUSH1 0x0 DUP1 REVERT JUMPDEST POP GAS STATICCALL ISZERO DUP1 ISZERO PUSH2 0x971 JUMPI RETURNDATASIZE PUSH1 0x0 DUP1 RETURNDATACOPY RETURNDATASIZE PUSH1 0x0 REVERT JUMPDEST POP POP POP POP PUSH1 0x40 MLOAD RETURNDATASIZE PUSH1 0x20 DUP2 LT ISZERO PUSH2 0x987 JUMPI PUSH1 0x0 DUP1 REVERT JUMPDEST POP MLOAD PUSH1 0x1 PUSH1 0x1 PUSH1 0xA0 SHL SUB DUP5 AND SWAP2 SWAP1 PUSH2 0xB01 JUMP JUMPDEST PUSH1 0x0 DUP1 DUP3 PUSH1 0x1 PUSH1 0x1 PUSH1 0xA0 SHL SUB AND PUSH4 0x89AFCB44 ADDRESS PUSH1 0x40 MLOAD DUP3 PUSH4 0xFFFFFFFF AND PUSH1 0xE0 SHL DUP2 MSTORE PUSH1 0x4 ADD DUP1 DUP3 PUSH1 0x1 PUSH1 0x1 PUSH1 0xA0 SHL SUB AND DUP2 MSTORE PUSH1 0x20 ADD SWAP2 POP POP PUSH1 0x40 DUP1 MLOAD DUP1 DUP4 SUB DUP2 PUSH1 0x0 DUP8 DUP1 EXTCODESIZE ISZERO DUP1 ISZERO PUSH2 0x9EB JUMPI PUSH1 0x0 DUP1 REVERT JUMPDEST POP GAS CALL ISZERO DUP1 ISZERO PUSH2 0x9FF JUMPI RETURNDATASIZE PUSH1 0x0 DUP1 RETURNDATACOPY RETURNDATASIZE PUSH1 0x0 REVERT JUMPDEST POP POP POP POP PUSH1 0x40 MLOAD RETURNDATASIZE PUSH1 0x40 DUP2 LT ISZERO PUSH2 0xA15 JUMPI PUSH1 0x0 DUP1 REVERT JUMPDEST POP DUP1 MLOAD PUSH1 0x20 SWAP2 DUP3 ADD MLOAD PUSH1 0x40 DUP1 MLOAD PUSH4 0xDFE1681 PUSH1 0xE0 SHL DUP2 MSTORE SWAP1 MLOAD SWAP3 SWAP6 POP SWAP1 SWAP4 POP PUSH1 0x1 PUSH1 0x1 PUSH1 0xA0 SHL SUB DUP7 AND SWAP3 PUSH4 0xDFE1681 SWAP3 PUSH1 0x4 DUP1 DUP5 ADD SWAP4 DUP3 SWAP1 SUB ADD DUP2 DUP7 DUP1 EXTCODESIZE ISZERO DUP1 ISZERO PUSH2 0xA5F JUMPI PUSH1 0x0 DUP1 REVERT JUMPDEST POP GAS STATICCALL ISZERO DUP1 ISZERO PUSH2 0xA73 JUMPI RETURNDATASIZE PUSH1 0x0 DUP1 RETURNDATACOPY RETURNDATASIZE PUSH1 0x0 REVERT JUMPDEST POP POP POP POP PUSH1 0x40 MLOAD RETURNDATASIZE PUSH1 0x20 DUP2 LT ISZERO PUSH2 0xA89 JUMPI PUSH1 0x0 DUP1 REVERT JUMPDEST POP MLOAD PUSH1 0x1 PUSH1 0x1 PUSH1 0xA0 SHL SUB DUP7 DUP2 AND SWAP2 AND EQ PUSH2 0xA9F JUMPI SWAP1 JUMPDEST PUSH1 0x1 PUSH1 0x1 PUSH1 0xA0 SHL SUB DUP1 DUP6 AND SWAP1 DUP7 AND CALLER PUSH32 0xD06B1D7ED79B664D17472C6F6997B929F1ABE463CCCCB4E5B6A0038F2F730C15 DUP6 DUP6 PUSH2 0xADD DUP12 DUP12 DUP5 DUP5 PUSH2 0xC6B JUMP JUMPDEST PUSH1 0x40 DUP1 MLOAD SWAP4 DUP5 MSTORE PUSH1 0x20 DUP5 ADD SWAP3 SWAP1 SWAP3 MSTORE DUP3 DUP3 ADD MSTORE MLOAD SWAP1 DUP2 SWAP1 SUB PUSH1 0x60 ADD SWAP1 LOG4 POP POP POP POP POP JUMP JUMPDEST PUSH1 0x40 DUP1 MLOAD PUSH1 0x1 PUSH1 0x1 PUSH1 0xA0 SHL SUB DUP5 DUP2 AND PUSH1 0x24 DUP4 ADD MSTORE PUSH1 0x44 DUP1 DUP4 ADD DUP6 SWAP1 MSTORE DUP4 MLOAD DUP1 DUP5 SUB SWAP1 SWAP2 ADD DUP2 MSTORE PUSH1 0x64 SWAP1 SWAP3 ADD DUP4 MSTORE PUSH1 0x20 DUP3 ADD DUP1 MLOAD PUSH1 0x1 PUSH1 0x1 PUSH1 0xE0 SHL SUB AND PUSH4 0xA9059CBB PUSH1 0xE0 SHL OR DUP2 MSTORE SWAP3 MLOAD DUP3 MLOAD PUSH1 0x0 SWAP5 PUSH1 0x60 SWAP5 SWAP4 DUP10 AND SWAP4 SWAP3 SWAP2 DUP3 SWAP2 SWAP1 DUP1 DUP4 DUP4 JUMPDEST PUSH1 0x20 DUP4 LT PUSH2 0xB7E JUMPI DUP1 MLOAD DUP3 MSTORE PUSH1 0x1F NOT SWAP1 SWAP3 ADD SWAP2 PUSH1 0x20 SWAP2 DUP3 ADD SWAP2 ADD PUSH2 0xB5F JUMP JUMPDEST PUSH1 0x1 DUP4 PUSH1 0x20 SUB PUSH2 0x100 EXP SUB DUP1 NOT DUP3 MLOAD AND DUP2 DUP5 MLOAD AND DUP1 DUP3 OR DUP6 MSTORE POP POP POP POP POP POP SWAP1 POP ADD SWAP2 POP POP PUSH1 0x0 PUSH1 0x40 MLOAD DUP1 DUP4 SUB DUP2 PUSH1 0x0 DUP7 GAS CALL SWAP2 POP POP RETURNDATASIZE DUP1 PUSH1 0x0 DUP2 EQ PUSH2 0xBE0 JUMPI PUSH1 0x40 MLOAD SWAP2 POP PUSH1 0x1F NOT PUSH1 0x3F RETURNDATASIZE ADD AND DUP3 ADD PUSH1 0x40 MSTORE RETURNDATASIZE DUP3 MSTORE RETURNDATASIZE PUSH1 0x0 PUSH1 0x20 DUP5 ADD RETURNDATACOPY PUSH2 0xBE5 JUMP JUMPDEST PUSH1 0x60 SWAP2 POP JUMPDEST POP SWAP2 POP SWAP2 POP DUP2 DUP1 ISZERO PUSH2 0xC13 JUMPI POP DUP1 MLOAD ISZERO DUP1 PUSH2 0xC13 JUMPI POP DUP1 DUP1 PUSH1 0x20 ADD SWAP1 MLOAD PUSH1 0x20 DUP2 LT ISZERO PUSH2 0xC10 JUMPI PUSH1 0x0 DUP1 REVERT JUMPDEST POP MLOAD JUMPDEST PUSH2 0xC64 JUMPI PUSH1 0x40 DUP1 MLOAD PUSH3 0x461BCD PUSH1 0xE5 SHL DUP2 MSTORE PUSH1 0x20 PUSH1 0x4 DUP3 ADD MSTORE PUSH1 0x1A PUSH1 0x24 DUP3 ADD MSTORE PUSH32 0x5361666545524332303A205472616E73666572206661696C6564000000000000 PUSH1 0x44 DUP3 ADD MSTORE SWAP1 MLOAD SWAP1 DUP2 SWAP1 SUB PUSH1 0x64 ADD SWAP1 REVERT JUMPDEST POP POP POP POP POP JUMP JUMPDEST PUSH1 0x0 DUP4 PUSH1 0x1 PUSH1 0x1 PUSH1 0xA0 SHL SUB AND DUP6 PUSH1 0x1 PUSH1 0x1 PUSH1 0xA0 SHL SUB AND EQ ISZERO PUSH2 0xDC8 JUMPI PUSH1 0x0 PUSH2 0xC93 DUP5 DUP5 PUSH2 0x10DC JUMP JUMPDEST SWAP1 POP PUSH32 0x0 PUSH1 0x1 PUSH1 0x1 PUSH1 0xA0 SHL SUB AND DUP7 PUSH1 0x1 PUSH1 0x1 PUSH1 0xA0 SHL SUB AND EQ ISZERO PUSH2 0xD2B JUMPI PUSH2 0xD23 PUSH1 0x1 PUSH1 0x1 PUSH1 0xA0 SHL SUB PUSH32 0x0 AND PUSH32 0x0 DUP4 PUSH2 0xB01 JUMP JUMPDEST DUP1 SWAP2 POP PUSH2 0xDC2 JUMP JUMPDEST PUSH32 0x0 PUSH1 0x1 PUSH1 0x1 PUSH1 0xA0 SHL SUB AND DUP7 PUSH1 0x1 PUSH1 0x1 PUSH1 0xA0 SHL SUB AND EQ ISZERO PUSH2 0xD96 JUMPI PUSH2 0xD8F PUSH32 0x0 DUP3 PUSH2 0x1133 JUMP JUMPDEST SWAP2 POP PUSH2 0xDC2 JUMP JUMPDEST PUSH1 0x0 PUSH2 0xDA1 DUP8 PUSH2 0x707 JUMP JUMPDEST SWAP1 POP PUSH2 0xDAF DUP8 DUP3 DUP5 ADDRESS PUSH2 0x1188 JUMP JUMPDEST SWAP2 POP PUSH2 0xDBE DUP2 DUP3 DUP5 PUSH1 0x0 PUSH2 0xC6B JUMP JUMPDEST SWAP3 POP POP JUMPDEST POP PUSH2 0x10D4 JUMP JUMPDEST PUSH32 0x0 PUSH1 0x1 PUSH1 0x1 PUSH1 0xA0 SHL SUB AND DUP6 PUSH1 0x1 PUSH1 0x1 PUSH1 0xA0 SHL SUB AND EQ ISZERO PUSH2 0xE71 JUMPI PUSH2 0xE56 PUSH1 0x1 PUSH1 0x1 PUSH1 0xA0 SHL SUB PUSH32 0x0 AND PUSH32 0x0 DUP6 PUSH2 0xB01 JUMP JUMPDEST PUSH2 0xE6A DUP4 PUSH2 0xE64 DUP7 DUP6 PUSH2 0x1133 JUMP JUMPDEST SWAP1 PUSH2 0x10DC JUMP JUMPDEST SWAP1 POP PUSH2 0x10D4 JUMP JUMPDEST PUSH32 0x0 PUSH1 0x1 PUSH1 0x1 PUSH1 0xA0 SHL SUB AND DUP5 PUSH1 0x1 PUSH1 0x1 PUSH1 0xA0 SHL SUB AND EQ ISZERO PUSH2 0xF0D JUMPI PUSH2 0xEFF PUSH1 0x1 PUSH1 0x1 PUSH1 0xA0 SHL SUB PUSH32 0x0 AND PUSH32 0x0 DUP5 PUSH2 0xB01 JUMP JUMPDEST PUSH2 0xE6A DUP3 PUSH2 0xE64 DUP8 DUP7 PUSH2 0x1133 JUMP JUMPDEST PUSH32 0x0 PUSH1 0x1 PUSH1 0x1 PUSH1 0xA0 SHL SUB AND DUP6 PUSH1 0x1 PUSH1 0x1 PUSH1 0xA0 SHL SUB AND EQ ISZERO PUSH2 0xFA0 JUMPI PUSH2 0xE6A PUSH32 0x0 PUSH2 0xF9B DUP6 PUSH2 0xE64 DUP9 PUSH32 0x0 DUP9 ADDRESS PUSH2 0x1188 JUMP JUMPDEST PUSH2 0x1133 JUMP JUMPDEST PUSH32 0x0 PUSH1 0x1 PUSH1 0x1 PUSH1 0xA0 SHL SUB AND DUP5 PUSH1 0x1 PUSH1 0x1 PUSH1 0xA0 SHL SUB AND EQ ISZERO PUSH2 0x102E JUMPI PUSH2 0xE6A PUSH32 0x0 PUSH2 0xF9B DUP5 PUSH2 0xE64 DUP10 PUSH32 0x0 DUP10 ADDRESS PUSH2 0x1188 JUMP JUMPDEST PUSH1 0x0 PUSH2 0x1039 DUP7 PUSH2 0x707 JUMP JUMPDEST SWAP1 POP PUSH1 0x0 PUSH2 0x1046 DUP7 PUSH2 0x707 JUMP JUMPDEST SWAP1 POP DUP6 PUSH1 0x1 PUSH1 0x1 PUSH1 0xA0 SHL SUB AND DUP3 PUSH1 0x1 PUSH1 0x1 PUSH1 0xA0 SHL SUB AND EQ ISZERO PUSH2 0x1080 JUMPI PUSH2 0x1079 DUP3 DUP8 PUSH2 0x1073 DUP11 DUP7 DUP11 ADDRESS PUSH2 0x1188 JUMP JUMPDEST DUP8 PUSH2 0xC6B JUMP JUMPDEST SWAP3 POP PUSH2 0x10D1 JUMP JUMPDEST DUP7 PUSH1 0x1 PUSH1 0x1 PUSH1 0xA0 SHL SUB AND DUP2 PUSH1 0x1 PUSH1 0x1 PUSH1 0xA0 SHL SUB AND EQ ISZERO PUSH2 0x10B1 JUMPI PUSH2 0x1079 DUP8 DUP3 DUP8 PUSH2 0x10AC DUP11 DUP7 DUP11 ADDRESS PUSH2 0x1188 JUMP JUMPDEST PUSH2 0xC6B JUMP JUMPDEST PUSH2 0x10CE DUP3 DUP3 PUSH2 0x10C2 DUP11 DUP7 DUP11 ADDRESS PUSH2 0x1188 JUMP JUMPDEST PUSH2 0x10AC DUP11 DUP7 DUP11 ADDRESS PUSH2 0x1188 JUMP JUMPDEST SWAP3 POP JUMPDEST POP POP JUMPDEST SWAP5 SWAP4 POP POP POP POP JUMP JUMPDEST DUP2 DUP2 ADD DUP2 DUP2 LT ISZERO PUSH2 0x112D JUMPI PUSH1 0x40 DUP1 MLOAD PUSH3 0x461BCD PUSH1 0xE5 SHL DUP2 MSTORE PUSH1 0x20 PUSH1 0x4 DUP3 ADD MSTORE PUSH1 0x16 PUSH1 0x24 DUP3 ADD MSTORE PUSH22 0x536166654D6174683A20416464204F766572666C6F77 PUSH1 0x50 SHL PUSH1 0x44 DUP3 ADD MSTORE SWAP1 MLOAD SWAP1 DUP2 SWAP1 SUB PUSH1 0x64 ADD SWAP1 REVERT JUMPDEST SWAP3 SWAP2 POP POP JUMP JUMPDEST PUSH1 0x0 PUSH2 0x1181 DUP4 PUSH32 0x0 DUP5 PUSH32 0x0 PUSH2 0x1188 JUMP JUMPDEST SWAP4 SWAP3 POP POP POP JUMP JUMPDEST PUSH1 0x0 DUP1 PUSH32 0x0 PUSH1 0x1 PUSH1 0x1 PUSH1 0xA0 SHL SUB AND PUSH4 0xE6A43905 DUP8 DUP8 PUSH1 0x40 MLOAD DUP4 PUSH4 0xFFFFFFFF AND PUSH1 0xE0 SHL DUP2 MSTORE PUSH1 0x4 ADD DUP1 DUP4 PUSH1 0x1 PUSH1 0x1 PUSH1 0xA0 SHL SUB AND DUP2 MSTORE PUSH1 0x20 ADD DUP3 PUSH1 0x1 PUSH1 0x1 PUSH1 0xA0 SHL SUB AND DUP2 MSTORE PUSH1 0x20 ADD SWAP3 POP POP POP PUSH1 0x20 PUSH1 0x40 MLOAD DUP1 DUP4 SUB DUP2 DUP7 DUP1 EXTCODESIZE ISZERO DUP1 ISZERO PUSH2 0x1209 JUMPI PUSH1 0x0 DUP1 REVERT JUMPDEST POP GAS STATICCALL ISZERO DUP1 ISZERO PUSH2 0x121D JUMPI RETURNDATASIZE PUSH1 0x0 DUP1 RETURNDATACOPY RETURNDATASIZE PUSH1 0x0 REVERT JUMPDEST POP POP POP POP PUSH1 0x40 MLOAD RETURNDATASIZE PUSH1 0x20 DUP2 LT ISZERO PUSH2 0x1233 JUMPI PUSH1 0x0 DUP1 REVERT JUMPDEST POP MLOAD SWAP1 POP PUSH1 0x1 PUSH1 0x1 PUSH1 0xA0 SHL SUB DUP2 AND PUSH2 0x1292 JUMPI PUSH1 0x40 DUP1 MLOAD PUSH3 0x461BCD PUSH1 0xE5 SHL DUP2 MSTORE PUSH1 0x20 PUSH1 0x4 DUP3 ADD MSTORE PUSH1 0x1A PUSH1 0x24 DUP3 ADD MSTORE PUSH32 0x5369636C654D616B65723A2043616E6E6F7420636F6E76657274000000000000 PUSH1 0x44 DUP3 ADD MSTORE SWAP1 MLOAD SWAP1 DUP2 SWAP1 SUB PUSH1 0x64 ADD SWAP1 REVERT JUMPDEST PUSH1 0x0 DUP1 DUP3 PUSH1 0x1 PUSH1 0x1 PUSH1 0xA0 SHL SUB AND PUSH4 0x902F1AC PUSH1 0x40 MLOAD DUP2 PUSH4 0xFFFFFFFF AND PUSH1 0xE0 SHL DUP2 MSTORE PUSH1 0x4 ADD PUSH1 0x60 PUSH1 0x40 MLOAD DUP1 DUP4 SUB DUP2 DUP7 DUP1 EXTCODESIZE ISZERO DUP1 ISZERO PUSH2 0x12CE JUMPI PUSH1 0x0 DUP1 REVERT JUMPDEST POP GAS STATICCALL ISZERO DUP1 ISZERO PUSH2 0x12E2 JUMPI RETURNDATASIZE PUSH1 0x0 DUP1 RETURNDATACOPY RETURNDATASIZE PUSH1 0x0 REVERT JUMPDEST POP POP POP POP PUSH1 0x40 MLOAD RETURNDATASIZE PUSH1 0x60 DUP2 LT ISZERO PUSH2 0x12F8 JUMPI PUSH1 0x0 DUP1 REVERT JUMPDEST POP DUP1 MLOAD PUSH1 0x20 SWAP1 SWAP2 ADD MLOAD PUSH14 0xFFFFFFFFFFFFFFFFFFFFFFFFFFFF SWAP2 DUP3 AND SWAP4 POP AND SWAP1 POP PUSH1 0x0 PUSH2 0x1326 DUP8 PUSH2 0x3E5 PUSH2 0x15F5 JUMP JUMPDEST SWAP1 POP DUP4 PUSH1 0x1 PUSH1 0x1 PUSH1 0xA0 SHL SUB AND PUSH4 0xDFE1681 PUSH1 0x40 MLOAD DUP2 PUSH4 0xFFFFFFFF AND PUSH1 0xE0 SHL DUP2 MSTORE PUSH1 0x4 ADD PUSH1 0x20 PUSH1 0x40 MLOAD DUP1 DUP4 SUB DUP2 DUP7 DUP1 EXTCODESIZE ISZERO DUP1 ISZERO PUSH2 0x1361 JUMPI PUSH1 0x0 DUP1 REVERT JUMPDEST POP GAS STATICCALL ISZERO DUP1 ISZERO PUSH2 0x1375 JUMPI RETURNDATASIZE PUSH1 0x0 DUP1 RETURNDATACOPY RETURNDATASIZE PUSH1 0x0 REVERT JUMPDEST POP POP POP POP PUSH1 0x40 MLOAD RETURNDATASIZE PUSH1 0x20 DUP2 LT ISZERO PUSH2 0x138B JUMPI PUSH1 0x0 DUP1 REVERT JUMPDEST POP MLOAD PUSH1 0x1 PUSH1 0x1 PUSH1 0xA0 SHL SUB DUP11 DUP2 AND SWAP2 AND EQ ISZERO PUSH2 0x14C6 JUMPI PUSH2 0x13B0 DUP2 PUSH2 0xE64 DUP6 PUSH2 0x3E8 PUSH2 0x15F5 JUMP JUMPDEST PUSH2 0x13BA DUP3 DUP5 PUSH2 0x15F5 JUMP JUMPDEST DUP2 PUSH2 0x13C1 JUMPI INVALID JUMPDEST DIV SWAP5 POP PUSH2 0x13D8 PUSH1 0x1 PUSH1 0x1 PUSH1 0xA0 SHL SUB DUP11 AND DUP6 DUP10 PUSH2 0xB01 JUMP JUMPDEST PUSH1 0x40 DUP1 MLOAD PUSH1 0x0 DUP1 DUP3 MSTORE PUSH1 0x20 DUP3 ADD SWAP3 DUP4 SWAP1 MSTORE PUSH4 0x22C0D9F PUSH1 0xE0 SHL DUP4 MSTORE PUSH1 0x24 DUP3 ADD DUP2 DUP2 MSTORE PUSH1 0x44 DUP4 ADD DUP10 SWAP1 MSTORE PUSH1 0x1 PUSH1 0x1 PUSH1 0xA0 SHL SUB DUP11 DUP2 AND PUSH1 0x64 DUP6 ADD MSTORE PUSH1 0x80 PUSH1 0x84 DUP6 ADD SWAP1 DUP2 MSTORE DUP5 MLOAD PUSH1 0xA4 DUP7 ADD DUP2 SWAP1 MSTORE SWAP2 DUP11 AND SWAP6 PUSH4 0x22C0D9F SWAP6 DUP13 SWAP5 DUP15 SWAP5 SWAP2 SWAP4 SWAP1 SWAP3 SWAP1 SWAP2 PUSH1 0xC4 DUP6 ADD SWAP2 SWAP1 DUP1 DUP4 DUP4 DUP12 JUMPDEST DUP4 DUP2 LT ISZERO PUSH2 0x145A JUMPI DUP2 DUP2 ADD MLOAD DUP4 DUP3 ADD MSTORE PUSH1 0x20 ADD PUSH2 0x1442 JUMP JUMPDEST POP POP POP POP SWAP1 POP SWAP1 DUP2 ADD SWAP1 PUSH1 0x1F AND DUP1 ISZERO PUSH2 0x1487 JUMPI DUP1 DUP3 SUB DUP1 MLOAD PUSH1 0x1 DUP4 PUSH1 0x20 SUB PUSH2 0x100 EXP SUB NOT AND DUP2 MSTORE PUSH1 0x20 ADD SWAP2 POP JUMPDEST POP SWAP6 POP POP POP POP POP POP PUSH1 0x0 PUSH1 0x40 MLOAD DUP1 DUP4 SUB DUP2 PUSH1 0x0 DUP8 DUP1 EXTCODESIZE ISZERO DUP1 ISZERO PUSH2 0x14A9 JUMPI PUSH1 0x0 DUP1 REVERT JUMPDEST POP GAS CALL ISZERO DUP1 ISZERO PUSH2 0x14BD JUMPI RETURNDATASIZE PUSH1 0x0 DUP1 RETURNDATACOPY RETURNDATASIZE PUSH1 0x0 REVERT JUMPDEST POP POP POP POP PUSH2 0x15E9 JUMP JUMPDEST PUSH2 0x14D6 DUP2 PUSH2 0xE64 DUP5 PUSH2 0x3E8 PUSH2 0x15F5 JUMP JUMPDEST PUSH2 0x14E0 DUP3 DUP6 PUSH2 0x15F5 JUMP JUMPDEST DUP2 PUSH2 0x14E7 JUMPI INVALID JUMPDEST DIV SWAP5 POP PUSH2 0x14FE PUSH1 0x1 PUSH1 0x1 PUSH1 0xA0 SHL SUB DUP11 AND DUP6 DUP10 PUSH2 0xB01 JUMP JUMPDEST PUSH1 0x40 DUP1 MLOAD PUSH1 0x0 DUP1 DUP3 MSTORE PUSH1 0x20 DUP3 ADD SWAP3 DUP4 SWAP1 MSTORE PUSH4 0x22C0D9F PUSH1 0xE0 SHL DUP4 MSTORE PUSH1 0x24 DUP3 ADD DUP9 DUP2 MSTORE PUSH1 0x44 DUP4 ADD DUP3 SWAP1 MSTORE PUSH1 0x1 PUSH1 0x1 PUSH1 0xA0 SHL SUB DUP11 DUP2 AND PUSH1 0x64 DUP6 ADD MSTORE PUSH1 0x80 PUSH1 0x84 DUP6 ADD SWAP1 DUP2 MSTORE DUP5 MLOAD PUSH1 0xA4 DUP7 ADD DUP2 SWAP1 MSTORE SWAP2 DUP11 AND SWAP6 PUSH4 0x22C0D9F SWAP6 DUP13 SWAP6 SWAP5 DUP15 SWAP5 SWAP2 SWAP4 SWAP1 SWAP3 SWAP1 SWAP2 PUSH1 0xC4 DUP6 ADD SWAP2 SWAP1 DUP1 DUP4 DUP4 DUP11 JUMPDEST DUP4 DUP2 LT ISZERO PUSH2 0x1581 JUMPI DUP2 DUP2 ADD MLOAD DUP4 DUP3 ADD MSTORE PUSH1 0x20 ADD PUSH2 0x1569 JUMP JUMPDEST POP POP POP POP SWAP1 POP SWAP1 DUP2 ADD SWAP1 PUSH1 0x1F AND DUP1 ISZERO PUSH2 0x15AE JUMPI DUP1 DUP3 SUB DUP1 MLOAD PUSH1 0x1 DUP4 PUSH1 0x20 SUB PUSH2 0x100 EXP SUB NOT AND DUP2 MSTORE PUSH1 0x20 ADD SWAP2 POP JUMPDEST POP SWAP6 POP POP POP POP POP POP PUSH1 0x0 PUSH1 0x40 MLOAD DUP1 DUP4 SUB DUP2 PUSH1 0x0 DUP8 DUP1 EXTCODESIZE ISZERO DUP1 ISZERO PUSH2 0x15D0 JUMPI PUSH1 0x0 DUP1 REVERT JUMPDEST POP GAS CALL ISZERO DUP1 ISZERO PUSH2 0x15E4 JUMPI RETURNDATASIZE PUSH1 0x0 DUP1 RETURNDATACOPY RETURNDATASIZE PUSH1 0x0 REVERT JUMPDEST POP POP POP POP JUMPDEST POP POP POP POP SWAP5 SWAP4 POP POP POP POP JUMP JUMPDEST PUSH1 0x0 DUP2 ISZERO DUP1 PUSH2 0x1610 JUMPI POP POP DUP1 DUP3 MUL DUP3 DUP3 DUP3 DUP2 PUSH2 0x160D JUMPI INVALID JUMPDEST DIV EQ JUMPDEST PUSH2 0x112D JUMPI PUSH1 0x40 DUP1 MLOAD PUSH3 0x461BCD PUSH1 0xE5 SHL DUP2 MSTORE PUSH1 0x20 PUSH1 0x4 DUP3 ADD MSTORE PUSH1 0x16 PUSH1 0x24 DUP3 ADD MSTORE PUSH22 0x536166654D6174683A204D756C204F766572666C6F77 PUSH1 0x50 SHL PUSH1 0x44 DUP3 ADD MSTORE SWAP1 MLOAD SWAP1 DUP2 SWAP1 SUB PUSH1 0x64 ADD SWAP1 REVERT INVALID LOG2 PUSH5 0x6970667358 0x22 SLT KECCAK256 EQ BYTE SWAP14 PUSH14 0x7BDC9CFF3F22B810DA046DB2ECB7 0xC5 PUSH28 0xAB007148948FC778E774BA1E64736F6C634300060C00330000000000 "},"methodIdentifiers":{"bar()":"febb0f7e","bridgeFor(address)":"a761a939","claimOwnership()":"4e71e0c8","convert(address,address)":"bd1b820c","convertMultiple(address[],address[])":"303e6aa4","factory()":"c45a0155","owner()":"8da5cb5b","pendingOwner()":"e30c3978","setBridge(address,address)":"9d22ae8c","transferOwnership(address,bool,bool)":"078dfbe7"}}}}}